:100000000C9404020C944D5B0C9453560C94DA44FB
:100010000C946F4B0C944D5B0C944D5B0C944D5BAE
:100020000C944D5B0C944D5B0C944D5B0C944D5BB0
:100030000C944D5B0C944D5B0C944D5B0C944D5BA0
:100040000C944D5B0C944D5B0C944D5B0C944D5B90
:100050000C944D5B0C944D5B0C9444560C949B4B50
:100060000C944D5B0C944D5B0C944D5B0C944D5B70
:100070000C944D5B0C9468390C944D5B0C94464C7D
:100080000C946F4C0C947E530C944D5B0C944D5B14
:10009000B314B914C014C814D014D714DF14E7145F
:1000A000101516151D1525152D1534153C1544155F
:1000B0006D1573157A1582158A1591159915A11567
:1000C000CA15D015D715DF15E715EE15F615FE156F
:1000D00032A132A2803263326580317F318900B72C
:1000E000C832A232A38032A332A4802E852EE980AA
:1000F0003036305C00B6FD323332378028002809B4
:10010000803237323B00B87C32A432A580313631A0
:100110004600B7AA3189319300B7D23193319D009F
:10012000B7DC319D31A700B7E6280928198030E7F0
:1001300030FC00B76D326532678032A532A680315F
:10014000A731B100B7F031B131BB00B7FA31BB31E3
:10015000C500B80431C531CF00B80E2819282F804A
:100160003267326980282F2858802858285C8028D8
:100170005C28B0803269326B8028B028CB8032A6F0
:1001800032A78032A732A880323B323F80323F32E2
:10019000438031CF31D900B818326B326D80326D67
:1001A000326F80326F32718032A832A90012E92991
:1001B0005C2AEC802AEC2C7C80312431368031D9C9
:1001C00031E300B82231E331ED00B82C31ED31F7E5
:1001D00000B83631F7320100B8403201320B00B8B6
:1001E0004A32A932AA80327132738032AA32AB808D
:1001F00032AB32AC8032AC32AD803172317F803183
:1002000056316480314631568030CA30E78032AD95
:1002100032AE8032AE32AF8028CB28CD80327332FE
:10022000758032AF32B08032753277803277327972
:10023000803279327B80327B327D80327D327F80AA
:10024000327F328180328132838032B032B180326B
:1002500043324700B88032833285803285328780CE
:100260003287328980308230A600B74930A630CA42
:10027000803289328B80328B328D00B884328D325D
:100280008F00B88632B132B28032B232B38032B32C
:1002900032B4802F892FC98032B432B58032B53262
:1002A000B68032B632B7802FC930098031643172DE
:1002B00000B7BA32B732B800B88A32B832B9803231
:1002C000B932BA80328F3291803247324B8032BAA3
:1002D00032BB80324B324F8032BB32BC00B88B32E3
:1002E0004F32538032913293803009303600B6D08D
:1002F00032BC32BD80329332958032BD32BE803204
:10030000BE32BF8032BF32C08032C032C180325371
:10031000325780329532978032C132C28032973262
:1003200099803299329B80329B329D802E0C2E8593
:10033000802C7C2D44802EE92F39803257325B800F
:10034000320B321500B8543215321F00B85E321F1E
:10035000322900B86832C232C3802D442E0C802F5F
:10036000392F898030FC311000B78232C332C4800B
:1003700032C432C58028CD2932803110312400B7F3
:100380009632C532C68032C632C700B88C32C73208
:10039000C800B88D32C832C900B88E32C932CA001E
:1003A000B88F3229323300B87232CA32CB8032CBA6
:1003B00032CC8032CC32CD8032CD32CE8032CE3291
:1003C000CF8032CF32D08032D032D18032D132D2CF
:1003D00080325B325F80325F326380305C3082001B
:1003E000B723329D329F8029322938802938293C11
:1003F00080293C294080329F32A100B888294029B9
:100400005A80295A295C800011241FBECFEFCDBF2E
:10041000DFE3DEBFE0EDF0E044E017C0B591A59169
:1004200035912591059107FD0CC095918591EF01BE
:10043000F92FE82F05900D92A217B307D9F7FE0107
:1004400004C01D92A217B307E1F7E730F40731F7B4
:0C0450000E94C15A0C942C02F894FFCFBB
:10045C004F4B0D00646562756720706172616D654C
:10046C00746572206D757374206265206265747793
:10047C0065656E203020284C656173742920616E8F
:10048C0064203420284D6F737429200D00312E32D6
:10049C002E31007625730D0A0400332E300025739F
:1004AC000D0A0400556E6B6E6F776E2E0D0A0400EC
:1004BC004572726F722067657474696E6720546838
:1004CC00696E672049442E0D0A04002C0025640037
:1004DC004F4B0D0A04004572726F722E2057692D16
:1004EC00466920636F6D6D616E6420666F726D611D
:1004FC00742069732077696669203C737369643E64
:10050C005B2C3C706173733E2C5B61757468547921
:10051C0070655D5D0D0A04002D2D2D2D2D2D2D2DBD
:10052C002D2D2D2D2D2D2D2D2D2D2D2D2D2D2D2DEF
:10053C002D2D2D2D2D2D2D2D2D2D2D2D2D2D2D2DDF
:10054C002D2D2D2D0D0A556E6B6E6F776E20636FF2
:10055C006D6D616E642E204C697374206F66206122
:10056C007661696C61626C6520636F6D6D616E6440
:10057C00733A0D0A72657365740D0A646576696366
:10058C00650D0A7468696E670D0A7265636F6E6E2D
:10059C006563740D0A76657273696F6E0D0A636C10
:1005AC00695F76657273696F6E0D0A77696669208B
:1005BC003C737369643E5B2C3C706173733E2C5BC3
:1005CC0061757468547970655D5D0D0A646562755A
:1005DC00670D0A2D2D2D2D2D2D2D2D2D2D2D2D2D48
:1005EC002D2D2D2D2D2D2D2D2D2D2D2D2D2D2D2D2F
:1005FC002D2D2D2D2D2D2D2D2D2D2D2D2D2D2D0D3F
:10060C000A04000D0A436F6D6D616E6420746F6F88
:10061C00206C6F6E670D0072657365740072656394
:10062C006F6E6E6563740077696669007468696ED5
:10063C00670064657669636500636C695F766572F3
:10064C0073696F6E0076657273696F6E00646562B4
:10065C007567002D2D2D2D2D424547494E205055A7
:10066C00424C4943204B45592D2D2D2D2D0D0A253E
:10067C00730D0A2D2D2D2D2D454E44205055424CD9
:10068C004943204B45592D2D2D2D2D0D0A040025A8
:10069C00303258006D326D5F73736C5F72657472BB
:1006AC00696576655F636572742829206661696C7B
:1006BC0065642077697468207265743D25641B5BE2
:1006CC00306D004543445341205369675665726948
:1006DC0066204641494C45441B5B306D006D326DC4
:1006EC005F73736C5F72657472696576655F686160
:1006FC0073682829206661696C6564207769746861
:10070C00207265743D25641B5B306D005F5F534C3C
:10071C004F54203D2025752C20457272203D2025FC
:10072C00581B5B306D00434C4F55443A206D71742F
:10073C007442726F6B65724950203D2028256C7590
:10074C002E256C752E256C752E256C75291B5B3032
:10075C006D00434C4F55443A2052657365742074B8
:10076C0061736B1B5B306D00434C4F55443A2072E8
:10077C0065696E69741B5B306D00436F6E6E6563EB
:10078C0074696E6720746F204150207769746820FB
:10079C006E65772063726564656E7469616C731B3A
:1007AC005B306D00436F6E6E656374696E672074A9
:1007BC006F204150207769746820746865206C61E3
:1007CC00737420757365642063726564656E7469F7
:1007DC00616C731B5B306D00434C4F55443A2043A6
:1007EC006C6F75642072657365742074696D6572C5
:1007FC002069732064656C657465641B5B306D00E7
:10080C004D5154543A204D515454207265736574B3
:10081C002074696D657220697320637265617465FB
:10082C00641B5B306D00434C4F55443A2074696D2A
:10083C0065206E6F742072656164791B5B306D008E
:10084C00434C4F55443A20557074696D6520256CA6
:10085C00757320536F636B657453746174652028D2
:10086C00256429204D51545420282564291B5B30C4
:10087C006D004D5154543A20434F4E4E41434B2042
:10088C0054494D454F55541B5B306D004D515454DC
:10089C003A20444953434F4E4E4543542028256437
:1008AC00292066726F6D20282564291B5B306D0032
:1008BC004D5154543A20434F4E4E41434B204449E2
:1008CC0053434F4E4E4543544544203A281B5B300E
:1008DC006D004D5154543A20434F4E4E41434B20E2
:1008EC00434F4E4E45435445442061742025731BA1
:1008FC005B306D004D5154543A20535441544520B3
:10090C004552524F525F4F4343555245441B5B3047
:10091C006D004D5154543A205061636B65742074D2
:10092C007970653A2025642E204D51545420436C27
:10093C0069656E7420646F6573206E6F74206375C7
:10094C007272656E746C7920737570706F7274202E
:10095C00746865207265636569766564207061638F
:10096C006B657420747970652E1B5B306D004D5176
:10097C0054543A2073656E64726573756C742028D8
:10098C002564291B5B306D004D5154543A2053653E
:10099C006E64204572726F721B5B306D004D51544A
:1009AC00543A20436F6E6E656374696F6E20616795
:1009BC0065642C20557074696D6520256C757320E9
:1009CC00536F636B657453746174652028256429B7
:1009DC00204D51545420282564291B5B306D004355
:1009EC004C4F55443A20436C6F75642052657365C7
:1009FC00741B5B306D00434C4F55443A204D5154A1
:100A0C005420436F6E6E656374696F6E2054696D0C
:100A1C00656F75741B5B306D00776966695F636227
:100A2C003A204D324D5F574946495F524553505F0E
:100A3C00434F4E5F53544154455F4348414E4745E5
:100A4C00443A20444953434F4E4E45435445441B6E
:100A5C005B306D00776966695F63623A204D324D99
:100A6C005F574946495F524553505F434F4E5F5362
:100A7C00544154455F4348414E4745443A20434F07
:100A8C004E4E45435445441B5B306D0061316771DC
:100A9C0074387374746969676E332E696F742E754C
:100AAC00732D656173742D322E616D617A6F6E6179
:100ABC0077732E636F6D00434C4F55443A20444876
:100ACC00435020434F4E461B5B306D002564002580
:100ADC00731B5B306D00534F46542041503A2043FA
:100AEC006F6E6E6563742043726564656E746961C4
:100AFC006C732073656E7420746F2057494E431BC2
:100B0C005B306D002A2E706F6F6C2E6E74702E6FB2
:100B1C007267005553494E472064656661756C7465
:100B2C00204E545020736572766572206E616D652F
:100B3C00203A2025731B5B306D0055706461746521
:100B4C0064204E545020736572766572206E616D10
:100B5C00653A2025731B5B306D0057494E4320646A
:100B6C006F776E6C6F6164206D6F64652066616970
:100B7C006C6564202D205468696E6720494420639D
:100B8C00616E6E6F74206265206F627461696E6550
:100B9C00641B5B306D0057494E4320696E20646FB7
:100BAC00776E6C6F6164206D6F64651B5B306D00DC
:100BBC005468696E67204944206973206E6F7420F5
:100BCC0070726573656E742C206572726F7220740E
:100BDC007970652025642C207573657220646566B8
:100BEC00696E6564207468696E6720494420697376
:100BFC002075736564005468696E672049442072DF
:100C0C006561642066726F6D20746865206465761A
:100C1C0069636520697320257300574946493A205A
:100C2C0077696669206572726F72203D2025641B9E
:100C3C005B306D00574946493A20536F667420412A
:100C4C005020436F6E6E656374204661696C7572DB
:100C5C00651B5B306D00534F46542041503A204E7B
:100C6C00657720436F6E6E6563742063726564658F
:100C7C006E7469616C732073656E742057494E43B2
:100C8C001B5B306D00574946493A20446973636FCA
:100C9C006E6E6563742066726F6D204150206572B4
:100CAC00726F72203D2025641B5B306D004D4348F4
:100CBC00502E494F542E414343455353504F494EA8
:100CCC005400000000000000000000000000313261
:100CDC00333435363738393000000000000000005E
:100CEC000000000000000000004143434553532026
:100CFC00504F494E54204D4F444520666F72207022
:100D0C00726F766973696F6E696E671B5B306D000D
:100D1C004D5154543A20436F6E6E656374696F6E17
:100D2C00206C6F7374205055424C495348206661B7
:100D3C00696C65641B5B306D00434C4F55443A2025
:100D4C00535542534352494245207061636B65745D
:100D5C0020637265617465641B5B306D0041637464
:100D6C006976654353206269746D61703A2530343D
:100D7C00781B5B306D00434C4F55443A20436C6FED
:100D8C0075642072657365742074696D6572206971
:100D9C0073207365741B5B306D0057694669205373
:100DAC00534C20496E697469616C697A6174696F1E
:100DBC006E206661696C65641B5B306D00536574F5
:100DCC00206163746976652063697068657220734D
:100DDC007569746573206661696C65641B5B306D45
:100DEC0000434C4F55443A20436F6E6E656374203C
:100DFC00736F636B65741B5B306D00434C4F5544D4
:100E0C0020636F6E6E6563742072656365697665C9
:100E1C00642025641B5B306D00434C4F55443A20D5
:100E2C004D51545420436F6E6E6563741B5B306D73
:100E3C0000434C4F55443A20446973636F6E6E65A2
:100E4C0063741B5B306D004D5154543A2073656EC6
:100E5C0064726573756C7420282564291B5B306D76
:100E6C0000246177732F7468696E67732F25732F55
:100E7C00736861646F772F757064617465007B2291
:100E8C007374617465223A7B227265706F7274653B
:100E9C0064223A7B224465766963654944223A228E
:100EAC002573222C22746F67676C65223A25647D4A
:100EBC007D7D0025732F73656E736F7273007B22BB
:100ECC004465766963654944223A222573222C22B3
:100EDC004C69676874223A25642C2254656D702223
:100EEC003A25642E253032647D007B227374617444
:100EFC0065223A7B2264657369726564223A7B22AF
:100F0C004465766963654944223A222573222C2272
:100F1C00746F67676C65223A25647D7D7D00246162
:100F2C0077732F7468696E67732F25732F736861DD
:100F3C00646F772F7570646174652F64656C746170
:100F4C000022746F67676C65223A00746F70696376
:100F5C003A202573007061796C6F61643A202573B7
:100F6C00004150503A2043727970746F4175746827
:100F7C00496E6974206661696C65641B5B306D0039
:100F8C004150503A20446576696365494420676551
:100F9C006E65726174696F6E206661696C65642C34
:100FAC0020756E737065636966696564206572721D
:100FBC006F721B5B306D004150503A20446576696E
:100FCC00636549442067656E65726174696F6E2054
:100FDC006661696C65642C2062616420617267755E
:100FEC006D656E741B5B306D004150503A2044654A
:100FFC007669636549442067656E65726174696FD3
:10100C006E206661696C65641B5B306D004D4348F6
:10101C00502E494F54006D6963726F63686970009C
:10102C0025640025730420257320257320001B5B89
:10103C00306D0D001B5B33376D4E4F524D414C1BC9
:10104C005B33376D001B5B33326D2020474F4F44B1
:10105C001B5B33376D001B5B33316D20202042410D
:10106C00441B5B33376D001B5B33316D1B5B376D82
:10107C00204552524F521B5B32376D1B5B33376D21
:10108C00001B5B33376D2020204E4F4E451B5B33CE
:10109C00376D001B5B33336D5741524E494E471B26
:1010AC005B33376D001B5B33346D204E4F5449431B
:1010BC00451B5B33376D001B5B33356D202020499E
:1010CC004E464F1B5B33376D001B5B33316D20205D
:1010DC0044454255471B5B32376D1B5B33376D0004
:1010EC002346B95629468E523346281F3846175682
:1010FC003E462350454608565146F95559465255D9
:10110C00511B002828002419001C3200431302151F
:10111C002300408D0230050056A500172300083728
:10112C00001614004632001B170002050080E00177
:10113C00771409474B00419902200A00453D0412DF
:10114C002D00511B002828002419001C320043AC30
:10115C000015230040D70030050056A500172300CA
:10116C000837001614004632001B170002050080D9
:10117C00A000777102472A0041DC00200A004527B5
:10118C0001122D00511B002828002419001C3200CC
:10119C00434B0015190040730030050056A500178D
:1011AC0023000837001614004632001B17000205F6
:1011BC000080500077FA00472400417300200A0099
:1011CC00456900122D00280D002414001C32004328
:1011DC003A00150B00407300111700300200172065
:1011EC0000080E00161D000103004630001B1700FE
:1011FC00020500470900413C00200A004548001246
:10120C001A00280D002414001C3200150B0040732A
:10121C0000111700300200172000080E00161D00E8
:10122C000103004630001B1700020500470900416E
:10123C003C00200A00454800121A002826001C3EDB
:10124C0000152B0011450030020017180008230070
:10125C00163C000102001B3200020500471600205C
:10126C000C00122A00295BD45A6C58D254F8540A38
:10127C00552C5B2F5B00000000C900E82400000027
:10128C00525C102B250C665B665B4D22665B665BC5
:10129C0040505150625073508D509F50B150C350BC
:0212AC00D5501B
:1012AE0053756E4D6F6E547565576564546875460B
:1012BE007269536174004A616E4665624D61724196
:1012CE0070724D61794A756E4A756C4175675365DA
:0B12DE00704F63744E6F764465630030
:0112E900FF05
:1012EA00EF92FF920F931F93CF93DF9300D0CDB766
:1012FA00DEB78C011092AB328091A932823020F095
:10130A00833009F497C07FC28091AE3280FF7BC2DE
:10131A00C8010E946F59C80108960E946F5941E09E
:10132A0050E06AEC70E3C8010E942A400F2EFAECE2
:10133A00EF2EF0E3FF2EF02D6BEC70E3F701838DB7
:10134A00948D0E946651482F50E06BEC70E3C801FF
:10135A000E942A404AE050E06FEC70E3C8010E9404
:10136A002A4042E050E069ED70E3C8010E942A4039
:10137A00F70161897289FB0101900020E9F7319731
:10138A00AF01461B570BC8010E942A40F701878903
:10139A00908D892B31F48091DD309091DE30892B4C
:1013AA0051F142E050E06DED70E3C8010E942A401D
:1013BA000F2EFAECEF2EF0E3FF2EF02DF701438902
:1013CA00548954274527542765897689C8010E947C
:1013DA002A4042E050E061EE70E3C8010E942A40D0
:1013EA00F7014789508D542745275427618D728DFF
:1013FA00C8010E942A40C8010E94AD50882309F4FE
:10140A0005C28091AE328E7F8093AE3285E08093A2
:10141A00AB3240E355E760E070E081E092E30E947E
:10142A00A23682E08093A9328091AC328E7F80937B
:10143A00AC32E9C18091AE32882309F4E4C1482F65
:10144A0050E080FDE0C180E08F5F682F9A01082E8E
:10145A0002C0359527950A94E2F720FFF5CF81E07F
:10146A0090E002C0880F991F6A95E2F7883009F464
:10147A00D3C020F4843009F44BC0C5C1803109F4CB
:10148A004BC1803209F0BFC18091AC3281FFBBC130
:10149A008091AC328D7F8093AC3219821A82C80156
:1014AA000E946F59C80108960E946F5989818170FC
:1014BA00806C8E7F89831A8241E050E0BE016F5FA3
:1014CA007F4FC8010E942A4041E050E0BE016E5F92
:1014DA007F4FC8010E942A40C8010E94AD5088234C
:1014EA0009F491C18091AE328F7D8093AE328091A2
:1014FA00AD3280618093AD3240E355E760E070E041
:10150A008DEE91E30E94A23685E08093AB327BC1D7
:10151A0087EF91E30E940E54C8010E946F59C801D7
:10152A0008960E946F5941E050E066E471E3C801F1
:10153A000E942A400F2EF6E4EF2EF1E3FF2EF02D43
:10154A0067E471E3F701868597850E946651482F03
:10155A0050E067E471E3C8010E942A4042E050E08B
:10156A006BE471E3C8010E942A40F7014581568164
:10157A0054274527542767817085C8010E942A404D
:10158A00F70180818670823071F441E050E060E5B5
:10159A0071E3C8010E942A4041E050E06FE471E320
:1015AA00C8010E942A40E6E4F1E3438550E06485DD
:1015BA007585C8010E942A408091AE3282FD04C01E
:1015CA008091463183FF30C1C8010E94AD50882303
:1015DA0009F42AC18091AE328B7F8093AE3280911A
:1015EA0046318670823009F015C18091AD32806231
:1015FA008093AD320FC19827892798279C012150E3
:10160A003109A8EEB3E00E947156AB01BC0187EF25
:10161A0091E30E94A236F7C0C8010E946F59C8011F
:10162A0008960E946F5941E050E066E571E3C801EF
:10163A000E942A400F2EF6E5EF2EF1E3FF2EF02D41
:10164A0067E571E3F701848595850E946651482F05
:10165A0050E067E571E3C8010E942A4041E050E08A
:10166A006CE571E3C8010E942A4041E050E06BE555
:10167A0071E3C8010E942A4042E050E06DE571E33F
:10168A00C8010E942A40F7014781508554274527FF
:10169A00542761857285C8010E942A4041E050E0C2
:1016AA0061E671E3C8010E942A40C8010E94AD5058
:1016BA008823D1F08091AE32877F8093AE328091B9
:1016CA00AD3284608093AD328091AC32877F809353
:1016DA00AC3240E355E760E070E083EE91E30E94AC
:1016EA00A23685E08093AB328091D7309091D83082
:1016FA00009709F488C09827892798279C012150C8
:10170A003109A8EEB3E00E947156AB01BC0187EF24
:10171A0091E30E94A23677C0C8010E946F59C8019E
:10172A0008960E946F5941E050E062E771E3C801F0
:10173A000E942A400F2EF2E7EF2EF1E3FF2EF02D42
:10174A0063E771E3F701838594850E946651482F08
:10175A0050E063E771E3C8010E942A4041E050E08B
:10176A0068E771E3C8010E942A4041E050E067E758
:10177A0071E3C8010E942A4042E050E069E771E340
:10178A00C8010E942A40F7014781508554274527FE
:10179A00542761857285C8010E942A40C8010E94A7
:1017AA00AD508823D1F08091AE328F7E8093AE32D5
:1017BA008091AD3288608093AD328091AC328F7E59
:1017CA008093AC3240E355E760E070E089ED91E345
:1017DA000E94A23685E08093AB328091D7309091F7
:1017EA00D830009781F09827892798279C012150A3
:1017FA003109A8EEB3E00E947156AB01BC0187EF34
:10180A0091E30E94A2368091A93211C086E08093AA
:10181A00AB32F9CF85E08093AB328091D73090918B
:10182A00D830009781F3E7CE1092A932ECCF0F900F
:10183A000F90DF91CF911F910F91FF90EF90089534
:10184A002F923F924F925F926F927F928F929F92C6
:10185A00AF92BF92CF92DF92EF92FF920F931F93B4
:10186A00CF93DF93CDB7DEB7C455D109CDBFDEBF65
:10187A008B0169017A01813411F08435E9F424E09D
:10188A0030E0AE014F5F5F4FC701B6010E94F641DB
:10189A00811147C28A8126968FAF2697E0919932A5
:1018AA00F0919A32309709F43CC2AE014B5B5F4F1C
:1018BA0061E08981099535C28234E9F424E030E097
:1018CA00AE014F5F5F4FC701B6010E94F641811119
:1018DA0028C28A8126968FAF2697E0919932F09195
:1018EA009A32309709F41DC2AE014B5B5F4F62E03A
:1018FA008981099516C2833409F077C02CE030E05B
:10190A00AE014B5B5F4FC701B6010E94F6418111E0
:10191A0008C22F968FAD2F9788230CF441C0482F09
:10192A00082E000C550B2E962FAD2E973BE0230365
:10193A00F0011124E45FF14D9185349FF001359F48
:10194A00F00D1124E45FF14D918791E09087619643
:10195A002EAD3FAD619728503109268337832091F8
:10196A009B3230919C32B9016F5F7F4F29F06093AF
:10197A009B3270939C3206C02E5F3F4F20939B325E
:10198A0030939C329BE0949FF001959FF00D1124B7
:10199A00E45FF14D20919B3230919C322483358350
:1019AA00898382E090E08A839B8329968EAD9FADDE
:1019BA0029978C839D832D968CAD9DADAEADBFAD21
:1019CA002D978E839F83A887B987E0919932F091EA
:1019DA009A32309709F4A5C1AE014F5F5F4F64E0B8
:1019EA002E968FAD2E9709959CC1843411F08B34B5
:1019FA0071F524E030E0AE014F5F5F4FC701B601D9
:101A0A000E94F64181118DC1898126968FAF269752
:101A1A009A8127969FAF279791110CC02BE08202DB
:101A2A00F0011124E45FF14D2B813C8128503109EA
:101A3A0026833783E0919932F0919A32309709F4EC
:101A4A0070C1AE014B5B5F4F65E009956AC18A348C
:101A5A00E1F424E430E0AE014F5F5F4FC701B60105
:101A6A000E94F64181115DC1E0919732F09198325E
:101A7A00309709F456C125964CAD5DAD6EAD7FAD7C
:101A8A002597CE01019609954CC1863451F08834C8
:101A9A0069F08D3409F0DDC00F2EF6E0AF2EF02D7F
:101AAA0009C00F2EF6E0AF2EF02D04C00F2EF9E07C
:101ABA00AF2EF02D20E130E0AE014B5B5F4FC70146
:101ACA00B6010E94F64181112CC16296BFAC6297A1
:101ADA0065962EAD3FAD65976B2D0B2C000C770BE1
:101AEA008B2D9BE08902F0011124E45FF14D1286EF
:101AFA002F968EAD9FAD2F976196AEADBFAD619714
:101B0A0029964EAD5FAD299749875A872D964CACD9
:101B1A005DAC6EAC7FAC2D974B865C866D867E86FF
:101B2A00448155812417350709F0FBC01816190698
:101B3A000CF07DC04C018017910708F078C000971F
:101B4A0009F4EFC02BE0269FF001279FF00D112426
:101B5A00E45FF14D20813181232B09F4E2C02BE0AF
:101B6A00269FF001279FF00D1124E45FF14D228199
:101B7A003381232B09F4D5C02BE0269FF001279F40
:101B8A00F00D1124E45FF14D2085213009F0C9C020
:101B9A00CA0EDB1EE11CF11C8D839E832BE0269F5F
:101BAA00C001279F900D1124FC01E45FF14D3F0114
:101BBA002F01F2E04F0E511C130128E0220E311CB6
:101BCA00F201008111818016910608F48401F30163
:101BDA00408151819801C701B6010E94F6418111E5
:101BEA00A0C0F3018081918189839A830B831C832E
:101BFA008D819E81801B910B8D839E83E09199320A
:101C0A00F0919A32309731F0AE014F5F5F4F6A2DF3
:101C1A008B2D0995C00ED11EE11CF11CF1018081AA
:101C2A00882309F47EC0801A910A51F67AC08B8300
:101C3A009C8319821A82E0919932F0919A323097F4
:101C4A0009F46FC0AE014F5F5F4F6A2D8B2D099566
:101C5A0068C0853431F0873431F08C3481F517E06F
:101C6A0003C017E001C018E028E030E0AE014F5F82
:101C7A005F4FC701B6010E94F641811152C08981A6
:101C8A004D815E812B813C8127962EAF3FAF2797EE
:101C9A002BE08202F0011124E45FF14D24813581A9
:101CAA0042175307F1F5E0919932F0919A32309741
:101CBA00C1F1AE014B5B5F4F612F099532C082358E
:101CCA0081F524E130E0AE014F5F5F4FC701B601F5
:101CDA000E94F641811125C04D815E816F81788510
:101CEA008091533290915432A0915532B09156322C
:101CFA00481759076A077B0781F4E0919532F091FA
:101D0A009632309751F029853A854B855C856981F1
:101D1A007A818B819C81098909951092953210925A
:101D2A009632CC5ADF4FCDBFDEBFDF91CF911F91E4
:101D3A000F91FF90EF90DF90CF90BF90AF909F9060
:101D4A008F907F906F905F904F903F902F90089563
:101D5A00AF92BF92CF92DF92EF92FF920F931F93AF
:101D6A00CF93DF9380910928982F957051F4E091D1
:101D7A003631F091373169E871E383E991E30995E6
:101D8A0028C083FD26C0E0914231F0914331099584
:101D9A0081111FC08091092881FD1BC08CE098E445
:101DAA009F938F9383E08F9384E08F930E94EA43FB
:101DBA0040E157E260E070E083E991E30E94A236D5
:101DCA00809109288860809309280F900F900F90BE
:101DDA000F9080910E2881FD0BC0E0914231F09165
:101DEA0043310995882309F4C6C10E941D5BC3C10A
:101DFA000E941A5BDC015096ED91FC91519780810B
:101E0A00082E000C990B0E94B658C82F0E943F500A
:101E1A006B017C010E941959672B682B692B09F009
:101E2A00A2C182E398E49F938F9383E08F9384E027
:101E3A008F930E94EA430F900F900F900F9032C039
:101E4A0080910E28806880930E2880913732909175
:101E5A003832A0913932B0913A32C816D906EA0618
:101E6A00FB0601F10E94205B1F928F931F92CF9372
:101E7A00FF92EF92DF92CF928CE498E49F938F9334
:101E8A001F9283E08F930E94EA43C0923732D09226
:101E9A003832E0923932F0923A32EDB7FEB73C96D8
:101EAA00EDBFFEBFC23009F466C130F0C33009F19C
:101EBA00C43009F052C15FC10E94984C60910A284F
:101ECA0070910B2880910C2890910D28E09138315F
:101EDA00F091393109958F3F31F480910E28846051
:101EEA0080930E2848C180910E28806180930E2825
:101EFA0042C1E0914431F09145310995882331F08E
:101F0A00E0913A31F0913B31099535C10E941A5B53
:101F1A00EC010E94CF10873009F472C00E94235B43
:101F2A008230D9F030F4882309F47DC0813031F051
:101F3A0058C0833061F18430C9F153C08EE798E408
:101F4A009F938F9383E08F9384E08F930E94EA4359
:101F5A000F900F900F900F9066C00E94265B21E7AA
:101F6A003AE53F932F9382958F701F928F9388E95A
:101F7A0098E49F938F9383E08F9384E08F930E94DA
:101F8A00EA438DB79EB708968DBF9EBF4CC08CEBB7
:101F9A0098E49F938F9383E08F9384E08F930E94BA
:101FAA00EA430F900F900F900F903DC00E9419596D
:101FBA000E9422590E942B590E9436549F938F9354
:101FCA008EED98E49F938F9381E08F9384E08F93B3
:101FDA000E94EA430F900F900F900F900F900F906E
:101FEA0022C080E099E49F938F9383E08F9384E0EB
:101FFA008F930E94EA430F900F900F900F9013C097
:10200A001F9287E08F938EE199E49F938F9383E0E9
:10201A008F9384E08F930E94EA430F900F900F9062
:10202A000F900F900F90CE010E9475090E94235BBA
:10203A00853019F08630A9F022C00E946C5A9F930D
:10204A008F938AE799E49F938F931F9284E08F93EB
:10205A000E94EA430F900F900F900F900F900F90ED
:10206A000EC084E999E49F938F9383E08F9384E071
:10207A008F930E94EA430F900F900F900F900E9447
:10208A001A5BDC011C96AD90BC901D970E941A5BEE
:10209A00FC01008511850E941A5BDC015096ED91C6
:1020AA00FC915197808120E030E0A501B801082E0B
:1020BA00000C990B0E94063BE0914231F0914331AA
:1020CA000995882309F457C080910E288F7E8B7F4B
:1020DA0080930E2883E991E30E940E5489E891E3E4
:1020EA000E940E54809109288B7F877F809309284C
:1020FA0084FF05C0E0913C31F0913D3109950E9481
:10210A003F5061317E4081059105ACF10E94205B10
:10211A001F928F931F9283E08F93FF92EF92DF9229
:10212A00CF9229EA39E43F932F938F9384E08F93D8
:10213A000E94EA43E0914031F09141310995E889E2
:10214A00F9898081082E000C990B0E94F34DEDB796
:10215A00FEB73C96EDBFFEBF0EC080910E2884608C
:10216A0080930E2808C0E0914231F09143310995DD
:10217A00811166CE97CE64EF71E080E090E0DF9146
:10218A00CF911F910F91FF90EF90DF90CF90BF906A
:04219A00AF90089565
:10219E00CF92DF92EF92FF920F931F93CF93DF9325
:1021AE00CDB7DEB72997CDBFDEBF8C011092AB3213
:1021BE0019828091AC3282FD08C08091AC3283FDD1
:1021CE0004C08091AC3284FF05C01092A932C801C0
:1021DE000E948555F80186859785892B19F4809183
:1021EE00A932C0C18091A932823039F0833009F40E
:1021FE007CC0813009F09FC1A1C18091AC3280FDBD
:10220E006BC0C090D730D090D83081E092E30E945E
:10221E000E547801F8E0EF0EF11C41E050E0BE01E3
:10222E006F5F7F4FC7010E94D53E9C019981907FC1
:10223E00903209F041C08E010E5F1F4F84E0F8010D
:10224E0011928A95E9F741E050E0B801C7010E946A
:10225E008F3E41E050E0BE016D5F7F4FC7010E948F
:10226E008F3EB8016E5F7F4F41E050E0C7010E9484
:10227E008F3E41E050E0BE016B5F7F4FC7010E9471
:10228E008F3E8D81882309F45CC166C18091AE3288
:10229E0080628093AE32960121503109A8EEB3E0F0
:1022AE000E947156AB01BC0187EF91E30E94A236EA
:1022BE0084E08093AB3242C182E08093AB3289815D
:1022CE008093AA3220937132309372321092A932D7
:1022DE00C8010E94855532C11092A932C8010E94D0
:1022EE00855581E08093AB3229C17801F8E0EF0E7D
:1022FE00F11C41E050E0BE016F5F7F4FC7010E94AD
:10230E00D53E898182958F70893099F138F483306A
:10231E0009F4D7C0843009F4D8C010C18B3009F449
:10232E0080C08D3009F00AC18091AD3284FF06C1A4
:10233E008091AC3282FD02C18DEE91E30E940E546B
:10234E001A821B8241E050E0BE016E5F7F4FC701D3
:10235E000E948F3E8091D7309091D830892B29F0F2
:10236E008091AE3280628093AE32C7010E946F5967
:10237E00E5C08091AD3282FFE1C08091AC3283FD29
:10238E00DDC083EE91E30E940E54BE016E5F7F4F5F
:10239E0088E0FB0111928A95E9F741E050E0C70110
:1023AE000E948F3E41E050E0BE016D5F7F4FC7013E
:1023BE000E948F3E41E050E0BE01695F7F4FC70132
:1023CE000E948F3E41E050E0BE01685F7F4FC70123
:1023DE000E948F3E988580915B31981312C09F8129
:1023EE0080915C3198130FC041E050E0BE01675FF1
:1023FE007F4FC7010E948F3E8985803831F013E0F0
:10240E0005C010E003C010E001C010E08091AD32B5
:10241E008B7F8093AD32C7010E946F591093A93202
:10242E008DC08091AD3283FF89C08091AC3284FD26
:10243E0085C089ED91E30E940E54BE016E5F7F4F01
:10244E0084E0FB0111928A95E9F741E050E0C70163
:10245E000E948F3E41E050E0BE016D5F7F4FC7018D
:10246E000E948F3E8B818230E1F441E050E0BE014C
:10247E006C5F7F4FC7010E948F3E41E050E0BE016E
:10248E006B5F7F4FC7010E948F3E9D818091773198
:10249E00981309C09C8180917831981731F010E023
:1024AE0005C010E003C010E001C013E08091AD3212
:1024BE00877F8093AD32C7010E946F591093A93266
:1024CE003DC0C8010E94901C39C08E010E5F1F4F87
:1024DE0084E0F80111928A95E9F741E050E0B801E5
:1024EE00C7010E948F3E41E050E0BE016D5F7F4FFD
:1024FE00C7010E948F3E41E050E0BE016B5F7F4FEF
:10250E00C7010E948F3EB8016E5F7F4F41E050E0E1
:10251E00C7010E948F3E9C8180914F3198130EC04F
:10252E009D8180915031981309C08091AD328F7D7D
:10253E008093AD3203C087E08093A9328091A93297
:10254E0011C0DC24CD24DC2483E08093A932C11495
:10255E00D10409F4ADCE9ACE1092A93283E08093C5
:10256E00AB32ECCF2996CDBFDEBFDF91CF911F915D
:0C257E000F91FF90EF90DF90CF90089538
:10258A00ABE0B0E0EBECF2E10C9415526C017B018C
:10259A008A01FC0116821782838181FFCCC1CE0198
:1025AA0001963C01F6019381F70193FD859193FF12
:1025BA0081917F01882309F4BAC1853239F493FDE8
:1025CA00859193FF81917F01853229F4B60190E0CC
:1025DA000E946344E7CF912C212C312CFFE1F315A3
:1025EA00D8F08B3279F038F4803279F08332A1F462
:1025FA00232D20611DC08D3261F0803369F4232DB3
:10260A00216016C0832D8260382EE32DE4603E2EB1
:10261A002AC0F32DF8601DC037FC2DC020ED280F0D
:10262A002A3040F08E32B9F436FC81C1232D206461
:10263A00322E19C036FE06C08AE0989E200D11245B
:10264A00922E11C0EAE02E9E200D1124222EF32D87
:10265A00F0623F2E08C08C3621F4832D8068382E14
:10266A0002C0883641F4F70193FD859193FF819169
:10267A007F018111B3CF982F9F7D9554933028F411
:10268A000C5F1F4F9FE399830DC0833631F0833768
:10269A0071F0833509F059C021C0F801808189831E
:1026AA000E5F1F4F88248394912C530113C0280175
:1026BA00F2E04F0E511CF801A080B18036FE03C033
:1026CA00692D70E002C06FEF7FEFC5010E940758C5
:1026DA004C018201F32DFF773F2E16C0280122E01C
:1026EA00420E511CF801A080B18036FE03C0692D4C
:1026FA0070E002C06FEF7FEFC5010E94FC574C01EA
:10270A00F32DF0683F2E820133FC1BC0822D90E02E
:10271A0088169906B0F4B60180E290E00E946344FC
:10272A002A94F4CFF50137FC859137FE81915F0138
:10273A00B60190E00E94634421102A9421E0821A93
:10274A0091088114910471F7E8C0843611F0893632
:10275A0041F5F80137FE07C060817181828193815A
:10276A000C5F1F4F08C060817181072E000C880B17
:10277A00990B0E5F1F4FF32DFF763F2E97FF09C06F
:10278A0090958095709561957F4F8F4F9F4FF06818
:10279A003F2E2AE030E0A3010E948D35882E86184C
:1027AA0045C0853731F4232D2F7EB22E2AE030E042
:1027BA0025C0932D997FB92E8F36C1F018F488352C
:1027CA0079F0B5C0803719F0883721F0B0C0E92F09
:1027DA00E061BE2EB4FE0DC0FB2DF460BF2E09C011
:1027EA0034FE0AC0292F2660B22E06C028E030E047
:1027FA0005C020E130E002C020E132E0F801B7FE76
:10280A0007C060817181828193810C5F1F4F06C06E
:10281A006081718180E090E00E5F1F4FA3010E94EA
:10282A008D35882E8618FB2DFF773F2E36FE0DC07C
:10283A00232D2E7FA22E891458F434FE0BC032FCAD
:10284A0009C0832D8E7EA82E05C0B82CA32C03C0E8
:10285A00B82C01C0B92CA4FE0FC0FE01E80DF11D71
:10286A008081803321F49A2D997EA92E09C0A2FE77
:10287A0006C0B394B39404C08A2D867809F0B39441
:10288A00A3FC11C0A0FE06C0B21488F4280C922C36
:10289A009B180EC0B21460F4B60180E290E00E9468
:1028AA006344B394F7CFB21418F42B1802C0982CCF
:1028BA00212CA4FE10C0B60180E390E00E9463447C
:1028CA00A2FE17C0A1FC03C088E790E002C088E519
:1028DA0090E0B6010CC08A2D867859F0A1FE02C09C
:1028EA008BE201C080E2A7FC8DE2B60190E00E9473
:1028FA006344891438F4B60180E390E00E9463448B
:10290A009A94F7CF8A94F301E80DF11D8081B601FC
:10291A0090E00E9463448110F5CF222009F442CE50
:10292A00B60180E290E00E9463442A94F6CFF60151
:10293A008681978102C08FEF9FEF2B96E2E10C947C
:02294A007652C3
:10294C00E091CD328E2F90E08830910508F040C098
:10295C00FC01E85BFF4F0C94575A8091D132817087
:10296C008093C93235C08091D13286958170809325
:10297C00C9322EC08091D13282FB882780F9809396
:10298C00C93226C08091D13283FB882780F980938D
:10299C00C9321EC08091D132829581708093C93228
:1029AC0017C08091D13285FB882780F98093C9327A
:1029BC000FC08091D13286FB882780F98093C93271
:1029CC0007C08091D13287FB882780F98093C93268
:1029DC008091C932811104C081E08093660403C0E8
:1029EC0081E0809365048091CD32873018F010928D
:1029FC00CD3203C08F5F8093CD32E091CA328E2FDF
:102A0C0090E08830910508F040C0FC01E05BFF4F7E
:102A1C000C94575A8091CE3281708093C83235C055
:102A2C008091CE32869581708093C8322EC0809171
:102A3C00CE3282FB882780F98093C83226C08091E1
:102A4C00CE3283FB882780F98093C8321EC08091D8
:102A5C00CE32829581708093C83217C08091CE326D
:102A6C0085FB882780F98093C8320FC08091CE32C5
:102A7C0086FB882780F98093C83207C08091CE32BC
:102A8C0087FB882780F98093C8328091C8328111E6
:102A9C0004C088E08093660403C088E080936504DA
:102AAC008091CA32873018F01092CA3203C08F5FFF
:102ABC008093CA32E091CB328E2F90E08830910512
:102ACC0008F040C0FC01E85AFF4F0C94575A809113
:102ADC00CF3281708093C73235C08091CF328695CA
:102AEC0081708093C7322EC08091CF3282FB8827B1
:102AFC0080F98093C73226C08091CF3283FB882720
:102B0C0080F98093C7321EC08091CF32829581703C
:102B1C008093C73217C08091CF3285FB882780F90C
:102B2C008093C7320FC08091CF3286FB882780F903
:102B3C008093C73207C08091CF3287FB882780F9FA
:102B4C008093C7328091C732811104C084E0809396
:102B5C00660403C084E0809365048091CB32873097
:102B6C0018F01092CB3203C08F5F8093CB32E09180
:102B7C00CC328E2F90E08830910508F040C0FC01DB
:102B8C00E05AFF4F0C94575A8091D0328170809349
:102B9C00C63235C08091D032869581708093C63212
:102BAC002EC08091D03282FB882780F98093C63268
:102BBC0026C08091D03283FB882780F98093C6325F
:102BCC001EC08091D032829581708093C63217C01E
:102BDC008091D03285FB882780F98093C6320FC054
:102BEC008091D03286FB882780F98093C63207C04B
:102BFC008091D03287FB882780F98093C6328091F0
:102C0C00C632811104C082E08093660403C082E066
:102C1C00809365048091CC32873018F01092CC32BE
:102C2C0003C08F5F8093CC326AEF70E080E090E05D
:022C3C000895F9
:102C3E00CF92DF92EF92FF920F931F930E94E35079
:102C4E000E9408380E94D2538CEF90E30E945D5A86
:102C5E008CEF90E30E94A85A0E949D56811113C0DA
:102C6E008DE69FE49F938F9383E08F9384E08F9301
:102C7E000E94EA4380910E28846080930E280F9064
:102C8E000F900F900F908CEF90E30E946D40809309
:102C9E0031298823A9F190910E28946090930E28E3
:102CAE00813E19F0823E81F01DC08CE89FE49F9317
:102CBE008F9383E08F9384E08F930E94EA430F906B
:102CCE000F900F900F901CC083EC9FE49F938F93F7
:102CDE0083E08F9384E08F930E94EA430F900F90CE
:102CEE000F900F9085EF9FE49F938F9383E08F93C8
:102CFE0084E08F930E94EA430F900F900F900F90F5
:102D0E008CEF90E30E945D5A8CEF90E30E949759EE
:102D1E000E94AD3348EE53E060E070E085E192E34F
:102D2E000E94A23640E257E466E170E0C12CD12C3D
:102D3E00760100E010E0980186B38074080F111D33
:102D4E00211D311D86B38072C80ED11CE11CF11CF1
:102D5E00415051096109710979F7003913422B402D
:102D6E00310508F05AC080E9C81683E2D8068BE018
:102D7E00E806F104C8F589E0E9E1F0E5ACE5B8E272
:102D8E0001900D928A95E1F78AE0E2E2F0E5ABE779
:102D9E00B8E201900D928A95E1F71F9282E08F932F
:102DAE008CE290E59F938F938EEA98E29F938F9398
:102DBE000E940A4F85E50E94B75A85E50E94B25AD5
:102DCE008FEF0E94BC5A8FEF0E94AD5A80910E2851
:102DDE0088608F7D806480930E280F900F900F90E7
:102DEE000F900F900F904CC083E30E94B25A8FEF5A
:102DFE000E94B75A8FEF0E94BC5A8FEF0E94AD5AB5
:102E0E0080910E28877F80628F7B80930E2860E0F2
:102E1E0083EA9AE50E94174B14C085E50E94B25AC8
:102E2E008FEF0E94B75A8FEF0E94BC5A8FEF0E940D
:102E3E00AD5A80910E2888608F7D8F7B80930E28EF
:102E4E001FC00E9408380E9410598FE298E29F938B
:102E5E008F938AE29FE49F938F938DEC98E29F93DA
:102E6E008F930E940A4F6DED72E38DEC98E20E94F3
:102E7E0086540F900F900F900F900F900F9012C0DE
:102E8E0061E083EA9AE50E94174B8CEF90E30E9473
:102E9E00805844E650E060E070E08FE192E30E94DB
:102EAE00A236CFCF1F910F91FF90EF90DF90CF9072
:022EBE00089575
:102EC000AF92BF92CF92DF92EF92FF920F931F9338
:102ED000CF93DF93CDB7DEB72697CDBFDEBF7C01A2
:102EE0006B0160914F3270915032809151329091CC
:102EF0005232611571058105910509F4FDC0890102
:102F00005A0122E030E0A7010E94F6418111F6C08B
:102F100080914F3290915032A0915132B091523203
:102F2000BC01CD016E5F7F4F8F4F9F4F60934F323B
:102F300070935032809351329093523222E030E0BD
:102F4000AE014B5F5F4F0E94F6418111D9C0809165
:102F50004F3290915032A0915132B0915232BC0117
:102F6000CD016E5F7F4F8F4F9F4F60934F327093B5
:102F70005032809351329093523222E030E0AE01D1
:102F80004F5F5F4F0E94F6418111BCC080914F326C
:102F900090915032A0915132B0915232BC01CD018A
:102FA0006E5F7F4F8F4F9F4F60934F3270935032C1
:102FB000809351329093523222E030E0AE014D5F67
:102FC0005F4F0E94F64181119FC080914F329091D6
:102FD0005032A0915132B0915232BC01CD016E5F9E
:102FE0007F4F8F4F9F4F60934F327093503280933B
:102FF000513290935232F7012081318132272327B9
:103000003227208331832D813E81322723273227A7
:10301000F801E05CFF4F2083318349815A815427B6
:103020004527542749835A834B815C815427452780
:1030300054274B835C83220F331FA8010E94F64163
:10304000811164C0F801E05CFF4F20813181220FC3
:10305000331F80914F3290915032A0915132B091F4
:103060005232BC01CD01620F731F811D911D60930F
:103070004F32709350328093513290935232298163
:103080003A81A6010E94F641811142C029813A810C
:1030900080914F3290915032A0915132B091523282
:1030A000BC01CD01620F731F811D911D60934F32D2
:1030B0007093503280935132909352322B813C81E5
:1030C000A5010E94F641811125C02B813C814091D0
:1030D0004F32509150326091513270915232420FC2
:1030E000531F611D711D40934F32509350326093B6
:1030F0005132709352320FC084EF0DC084EF0BC079
:1031000084EF09C084EF07C084EF05C084EF03C0DB
:1031100084EF01C084EF2696CDBFDEBFDF91CF9153
:103120001F910F91FF90EF90DF90CF90BF90AF90E5
:02313000089500
:103132004F925F926F927F928F929F92AF92BF92C5
:10314200FF920F931F93CF93DF9300D000D0CDB7A0
:10315200DEB7F82EB62E29013A0120E030E0A901AF
:103162006CE070E0CB010E94F14020E030E0A90168
:103172006CE870E180E090E00E94F14020E030E0F5
:10318200A9016CEA77E082E090E00E94F14021E040
:1031920030E040E050E068E171E180E090E00E94C0
:1031A200A33F8111BFC020E034E040E050E060E086
:1031B20074E180E090E00E94A33F8111B5C064E118
:1031C20070E180E090E00E94E84C9923C4F76CEB38
:1031D20077E082E090E00E94E84C60FD19C00FECBD
:1031E20017E061E070E080E090E00E945B506CE0EC
:1031F20070E0CB010E94E84C6E39704D8D4A9041CF
:1032020021F00150110968F703C0012B09F48EC0A7
:10321200FF2079F02DE735ED4CE15CE36CEA77E0D5
:1032220082E090E00E94F140812C912C5401939411
:103232000DC0BB2039F0812C912C5401689487F881
:10324200939404C0812C912C54019394A301920174
:103252006CE870E180E090E00E94F1400E94742AE4
:10326200DC01CB019F70AA27BB27803A9340A105BE
:10327200B10510F0689481F8A501940160EA74E147
:1032820080E090E00E94F140AE014F5F5F4F60EA44
:1032920074E180E090E00E942E55811109C089817D
:1032A2009A81AB81BC8188169906AA06BB0621F7D2
:1032B20021E63FE242E55FEE6CE070E0CB010E9466
:1032C200F14000ED17E062E070E080E090E00E94E3
:1032D2005B50F11017C06CE870E180E090E00E9452
:1032E200E84C6633764283459240B9F420E030E000
:1032F200A9016CE870E180E090E00E94F1400E9438
:10330200CA4F17C06CEA77E082E090E00E94E84C76
:10331200633C714C8D45974D59F00150110999F656
:1033220080E007C080E005C080E003C080E001C00B
:1033320081E02496CDBFDEBFDF91CF911F910F9127
:10334200FF90BF90AF909F908F907F906F905F9013
:043352004F900895FB
:103356001F93CF93DF93EB018B3109F4AAC020F4BE
:10336600893009F4AFC0F1C08C3221F0823309F400
:1033760079C0EBC08881813009F041C08091A532C7
:10338600882399F085EC91E30E940E541092A532A1
:1033960085E50E94B25A44EF51E060E070E08BEBA5
:1033A60091E30E94A2360E94215780910E288A70CE
:1033B600883051F485E50E94B75A80910E288260C4
:1033C600877B806180930E2880910E2885FF06C03A
:1033D6008F7D80930E288FE00E94B25A80E69AE491
:1033E6009F938F9381E08F9384E08F930E94EA43AB
:1033F6000E9499540F900F900F900F9025C0811145
:1034060023C08FEF0E94BC5A8FEF0E94AD5A809165
:103416000E2886FD06C08FEF0E94B75A85E50E94EA
:10342600B25A80910E288D7E886080930E2842E3E2
:1034360050E060E070E087EA91E30E94A236809156
:103446000E28816080930E28E0916532F0916632F5
:10345600309709F47AC080910E2880FD76C0888165
:10346600099573C088E99AE40E94FC5181116DC0E8
:1034760080910E2880FF09C087EA91E30E940E54CE
:1034860080910E288E7F80930E2880910E288B7F48
:1034960080930E2883EC9AE49F938F9381E08F9319
:1034A60084E08F930E94EA430F900F900F900F9045
:1034B6004CC088819981892B09F447C0CB010E94B1
:1034C600604A43C0FB01ED59FF4F808181113DC029
:1034D600319780811F928F9388ED9AE49F938F9303
:1034E6008EEA98E29F938F930E940A4FDF93CF93C1
:1034F6008BED9AE49F938F931F9213E01F930E9484
:10350600EA436C2F7D2F8CE598E20E94D859BE01C4
:103516006F5D7F4F8BE798E20E94D85982EE9AE45E
:103526009F938F931F921F930E94EA4381E080939B
:10353600A53240E050E0BA0185EC91E30E94A23644
:103546008DB79EB740968DBF9EBFDF91CF911F91DD
:023556000895D6
:103558002F923F924F925F926F927F928F929F929B
:10356800AF92BF92CF92DF92EF92FF920F931F9389
:10357800CF93DF93CDB7DEB72C97CDBFDEBF962FA5
:103588009F779A8389830115110539F0F7013896D9
:10359800EC0DFD1DEB83FC8304C0F9013896EB8329
:1035A800FC83EB81FC81ED33F64008F0ABC03601BB
:1035B800680149015A01162F082F0E9446528111AD
:1035C800A3C02B813C81C901A0E0B0E0DC019927B0
:1035D8008827802B9C01AD01312B2D833E834F839F
:1035E80058876CE870E180E090E00E94F14022E0AA
:1035F80030E040E050E068E770E180E090E00E9451
:10360800F14019861A861B861C8607EE13E0AE0168
:103618004B5F5F4F68E770E180E090E00E942E55B5
:103628000E943B5B882321F00E94CA518FEF6DC036
:103638008D8181FD0AC0AE01475F5F4F60E074E095
:1036480085E190E00E942E550DC0053F81E01807E6
:1036580030F461E070E080E090E00E945B5001503F
:103668001109A8F60E943B5B811109C029843A849C
:103678004B845C84211431044104510421F40E94D8
:10368800CA518DEF42C028E030E0AE014F5F5F4F76
:10369800C201B1010E94AA2B88E0280E311C411CEE
:1036A800511CA114B10431F09401A501C201B1016A
:1036B8000E94AA2BC114D10451F0C201B101660DB8
:1036C800771D811D911D9701A6010E94AA2B89854E
:1036D8009A85AB85BC85880F991FAA1FBB1F880FC9
:1036E800991FAA1FBB1F9C01AD0122606CE670E107
:1036F80080E090E00E94F1400E94CA510E943B5B2A
:10370800819503C08FEF01C08FEF2C96CDBFDEBF30
:10371800DF91CF911F910F91FF90EF90DF90CF90A5
:10372800BF90AF909F908F907F906F905F904F90D9
:063738003F902F90089560
:10373E008F929F92AF92BF92CF92DF92EF92FF92B3
:10374E000F931F93CF93DF938C01DC011696CD90D0
:10375E00DD90ED90FC901997C0916D32D0916E3244
:10376E0014961D921C92159780913F329091403283
:10377E00A0914132B0914232C816D906EA06FB0634
:10378E0008F065C080903F3290904032A090413258
:10379E00B09042328091A732882329F10E948F5A2D
:1037AE00A0E0B0E040913B3250913C3260913D320E
:1037BE0070913E3284179507A607B70720F48FEF56
:1037CE009FEFA0E0B0E040913B3250913C326091CF
:1037DE003D3270913E32841A950AA60AB70A880EB7
:1037EE00991EAA1EBB1E209791F0FE01868197811D
:1037FE00A085B18588199909AA09BB098683978383
:10380E00A087B1870480F581E02D309779F78091FC
:10381E003F3290914032A0914132B091423288199C
:10382E009909AA09BB0980933F3290934032A09325
:10383E004132B0934232BFEFEB1AFB0AC818D908D7
:10384E00EA08FB08F801C682D782E086F186209747
:10385E0041F18E819F81A885B985C816D906EA06E1
:10386E00FB0658F41EC086819781A085B185C816C7
:10387E00D906EA06FB06C0F1EF01EC81FD81309717
:10388E0091F732C08091D3319091D431D8011496F2
:10389E008D939C93159700936D3210936E3281E049
:1038AE002BC010923B3210923C3210923D3210924D
:1038BE003E3280E090E00E94AF570E94035A809102
:1038CE003B3290913C32A0913D32B0913E320E94FB
:1038DE00AF570E94035A80916D3290916E32B1E3D0
:1038EE008F3C9B0799F6CECFD8011496ED93FC939F
:1038FE0015970C831D8380E0DF91CF911F910F915F
:10390E00FF90EF90DF90CF90BF90AF909F908F90F1
:02391E0008950A
:103920004F925F926F927F928F929F92AF92BF92CF
:10393000CF92DF92EF92FF920F931F93CF93DF937B
:10394000CDB7DEB7CC53D140CDBFDEBFBE016F5F78
:103950007F4F20E1DB011D922A95E9F7FE01719668
:1039600024E6DF011D922A95E9F7EC59FF4F28EC78
:10397000DF011D922A95E9F78C01085F1F4F41E096
:1039800050E0C8010E948F3E41E050E0BE016E5FF2
:103990007F4FC8010E948F3E8A818823ACF47E014C
:1039A000B3E0EB0EF11C5E01E6E0AE0EB11C41E0AF
:1039B00050E0B701C8010E948F3EF7018081FFEF00
:1039C000EF1AFF0A88236CF0FE013296412C512C2D
:1039D0003201C12CD12C7601C394812C912C54013D
:1039E00004C0EA14FB0419F7EFCFA191AF77B0E060
:1039F000A70196010E94E657460E571E681E791EC3
:103A0000CC0CDD1CEE1CFF1CCC0CDD1CEE1CFF1CCA
:103A1000CC0CDD1CEE1CFF1CCC0CDD1CEE1CFF1CBA
:103A2000CC0CDD1CEE1CFF1CCC0CDD1CEE1CFF1CAA
:103A3000CC0CDD1CEE1CFF1C8FEF881A980AA80A1C
:103A4000B80A99F2DF0111978C91882374F242E051
:103A500050E0BE016A5F7F4FC8010E948F3EBE01E9
:103A60006F5E7F4F688779874E815F815427452736
:103A70005427C8010E948F3E8E819F8198278927F5
:103A800098274EEF5FEF6FEF7FEF481B590B6109EF
:103A90007109440D551D661D771DCE018B589F4F32
:103AA0008D879E87BC01C8010E948F3E0E947B5A71
:103AB000FC01892B29F06D857E858885998509957E
:103AC000C8010E946F5983E0C45CDE4FCDBFDEBFEA
:103AD000DF91CF911F910F91FF90EF90DF90CF90EA
:103AE000BF90AF909F908F907F906F905F904F901E
:023AF000089537
:103AF2002F923F924F925F926F927F928F929F92FC
:103B0200AF92BF92CF92DF92EF92FF920F931F93E9
:103B1200CF93DF93CDB7DEB7A597CDBFDEBF1982B6
:103B22001A82833008F0A1C0823021F4603171051D
:103B320008F09DC00115110509F49BC0211531053E
:103B420009F499C0680119012A016CA37DA38BA312
:103B5200AE014F5F5F4F0E94473381118FC02981B1
:103B62003A81C801840D951D2817390708F485C0CC
:103B720032017694679476946794769467947694F7
:103B82006794769467946894FF24F5F8812C912CBD
:103B9200A12CB12C80E2F8121CC089819A81930178
:103BA200220F331F22953295307F3227207F322712
:103BB200821B930B809768F442018A0C9B1C96949B
:103BC20087949694879497E0892299246894FF2495
:103BD200F2F8EF2C8E010D5F1F4F282D462D6CA1A0
:103BE2007DA18BA10E949831811148C0C301880F29
:103BF200991F880F991F880F991F880D991D880F8B
:103C0200991F880F991F8415950520F4B201681B2E
:103C1200790B02C060E070E08F2D90E0861B970B5D
:103C220086010A191B098017910708F48C0183E0A9
:103C320090E08C0F9D1F680F791FA801C1018A0DAA
:103C42009B1D0E943459A00EB11E90E2F91204C0CD
:103C52008FEF681A780A03C09FEF891A990AAC1489
:103C6200BD0408F497CF80E009C082EE07C082EE5F
:103C720005C080E003C082EE01C082EEA596CDBFF2
:103C8200DEBFDF91CF911F910F91FF90EF90DF90F8
:103C9200CF90BF90AF909F908F907F906F905F90EA
:083CA2004F903F902F90089510
:103CAA00CF92DF92EF92FF92CF93DF93CDB7DEB739
:103CBA006097CDBFDEBF6B017C018CE29FE40E945E
:103CCA00A755882369F086EA9DE49F938F931F92F4
:103CDA0083E08F930E94EA430F900F900F900F900A
:103CEA0060E070EA80E090E00E94E351882369F086
:103CFA0089EC9DE49F938F931F9283E08F930E9498
:103D0A00EA430F900F900F900F90C114D104E10471
:103D1A00F10409F48CC082E090E089839A8383EBF2
:103D2A0092E20E94DC5A8B839C83CD82DE82EF82F0
:103D3A00F8860E941A5B6C01DC015096ED91FC91A9
:103D4A0051978081082E000C990B0E94B658811158
:103D5A001CC0F601E088F18841E050E061E070E0C3
:103D6A0082E090E00E947049D7018C93D601509668
:103D7A00ED91FC915197808188233CF00E94C04CC0
:103D8A00009719F021E0FC012483D6015096ED91A9
:103D9A00FC9151978081082E000C990B0E94B6580D
:103DAA00813009F042C08DEE9DE49F938F931F925C
:103DBA0084E08F930E94EA43D6015096ED91FC91DC
:103DCA005197808140E150E0BE016F5F7F4F082E1E
:103DDA00000C990B0E94BD2FF82E0F900F900F9098
:103DEA000F90882329F18F2D0F2C000C990B9F938C
:103DFA00FF9287E09EE49F938F9383E08F9384E002
:103E0A008F930E94EA43D6015096ED91FC91519707
:103E1A008081082E000C990B0E94F34D0F900F9091
:103E2A000F900F900F900F9003C0F12C01C0F12C4E
:103E3A008F2D6096CDBFDEBFDF91CF91FF90EF90BF
:063E4A00DF90CF90089507
:103E5000EF92FF921F93CF93DF93CDB7DEB72697F4
:103E6000CDBFDEBF1B821C821D821E8267ED74E403
:103E70000E94C65A89839A83009709F496C09E01CE
:103E80002F5F3F4F790110E0F701819391937F01FC
:103E90001F5F67ED74E480E090E00E94C65A0097CF
:103EA00019F0133089F792C0E980FA80E114F10427
:103EB00009F484C08B819C81009729F48D819E81B7
:103EC000892B81F415C02D813E81232B59F40E944A
:103ED000105B9EEF980F923008F467C0813041F07C
:103EE00012E016C08D819E810E94105B182F66C063
:103EF0004EE150E0B7018CE598E20E9480561092A6
:103F00007B2881E390E08093AE289093AF2823C074
:103F10004EE150E0B7018CE598E20E9480566B813B
:103F20007C814EE150E08BE798E20E9480561F9220
:103F30001F9389ED94E49F938F938EEA98E29F9369
:103F40008F930E940A4F0F900F900F900F900F9039
:103F50000F90112351F18CED94E49F938F930E9465
:103F600014530E94E5590F900F90882321F00E946E
:103F70001A5B0E94855580910E2888233CF48F7728
:103F800080930E280E941A5B0E9475410E94CF4DBB
:103F90008FEF0E94BC5A8FEF0E94AD5A8FEF0E94A4
:103FA000B75A85E50E94B25A18C082EE94E49F93F6
:103FB0008F930E9414530F900F900FC0113009F48B
:103FC00097CF98F3143008F4A3CFEFCFE980FA80AD
:103FD000E114F10409F06ECF9BCF2696CDBFDEBF72
:0C3FE000DF91CF911F91FF90EF900895AA
:103FEC00FF920F931F93CF93DF9300D000D0CDB7E8
:103FFC00DEB7029709F0B5C0613009F044C02091DA
:10400C00C032022F10E0C801019667E070E00E94F8
:10401C005E548093C0329BE0909FF001919FF00D15
:10402C001124E45FF14D9085911109C08BE0809FC4
:10403C00F001819FF00D1124E45FF14D1BC0282F7E
:10404C0036E00F2EFBE0FF2EF02D07E010E0822F64
:10405C0090E0F89EF001F99EF00D1124E45FF14D13
:10406C000196B8010E945E54582F9085911104C09E
:10407C005093C032122F45C03150282F41F7509326
:10408C00C0321FEF3EC0623009F06DC02091BF32CC
:10409C00822F90E03BE0239FF0011124E75AF14D71
:1040AC00019683709078992324F401978C6F9F6FFD
:1040BC0001968093BF3230853323D1F0282F33E023
:1040CC006BE0822F90E0689FF001699FF00D112446
:1040DC00E75AF14D019683709078992324F4019757
:1040EC008C6F9F6F01965085511105C08093BF3224
:1040FC0017E0120F06C03150282F19F78093BF32EA
:10410C001FEF309789F18BE0DF011D928A95E9F75B
:10411C0081E0808780919B3290919C329C012F5F33
:10412C003F4F29F020939B3230939C3205C002966E
:10413C0080939B3290939C3280919B3290919C32D5
:10414C008483958340FF10C0198381E2818724E02A
:10415C0030E0AE014F5F5F4F60E582E00E94A853F4
:10416C0003C01FEF01C01FEF812F2496CDBFDEBF10
:0C417C00DF91CF911F910F91FF900895EB
:10418800A8E0B0E0EAECF0E20C941F528B01FC01CD
:10419800608171818281938120E831E541E050E0BE
:1041A8000E94E84E69017A012CE330E040E050E0DB
:1041B8000E94A55229833A834B835C8389819A8123
:1041C800AB81BC81F80160836CE370E00E945E54AF
:1041D800DC01CB01F801A1838283C601069667E062
:1041E80070E00E944A5484832DEA3EE840E050E0A3
:1041F800C701B6010E94A55229833A836D837E8345
:104208008F83988789819A8124E6289F6001299F56
:10421800D00C11246D817E818F81988525EB35E046
:1042280040E050E00E94A55229833A836D837E8343
:10423800E980FA80EE0CFF1CEE0CFF1CEC0CFD1C58
:104248008D819E81F5E6EF16F10410F0019604C009
:1042580024E6E216F10419F021E030E002C020E083
:1042680030E0A90144595E4F4817590768F46DE6D4
:1042780071E0821B930B0E945E54DC01CB01E80EB7
:10428800F91ECD0120E030E044E6E40EF11CF8010F
:10429800E682F78280879187255C3F4F82179307D4
:1042A80048F46FE170E00E945E54DC01CB01F80134
:1042B800858322C069E970E0821B930B0E945E54DB
:1042C800DC01CB01F82EFF0CFF0CF80E6DE370E05B
:1042D800CD010E945E54DC01CB01E82EEE0C6FE1AB
:1042E80070E0CD010E945E54DC01CB0122E0280F72
:1042F800F20EFE0CF801F582A383F80112861386EC
:0E43080083818F5F83832896E8E00C948052B7
:10431600CF92DF92EF92FF920E9419596B017C01B6
:104326000E94E559882309F47CC0209157323091C8
:1043360058324091593250915A32C701B6010E9403
:104346004A5B16161706180619060CF06AC0C092C4
:104356005732D0925832E0925932F0925A32E9EE00
:10436600FEE280E5DF011D928A95E9F78FE298E289
:104376009F938F938FEB9EE49F938F93FF93EF937F
:104386000E940A4F80910E280F900F900F900F9069
:104396000F900F9081FF45C00E943F477C010E940D
:1043A6000C5B482FE92FC701FF2024F488279927A3
:1043B6008E199F0924E630E0B9010E945E549F934E
:1043C6008F93C701B9010E945E547F936F93EF9359
:1043D6004F938CEF90E39F938F938AEC9EE49F9389
:1043E6008F938CE79CE29F938F930E940A4FAC01B8
:1043F6008DB79EB70C968DBF9EBF141615068CF40E
:104406006CE77CE289EE9EE20E94DF598091C2321F
:10441600882321F081508093C23203C083E30E9437
:10442600BC5A80910E2883FD10C081FF03C080E036
:104436000E94B25A80910E2884FD07C00E94E55959
:10444600882319F080E00E94B75A80910E2882FFD7
:1044560004C080E00E94AD5A03C08FEF0E94AD5A9F
:10446600B6990FC08091C33281110BC081E0809351
:10447600C33248EC50E060E070E08BE092E30E94CB
:10448600A23664E670E080E090E0FF90EF90DF9067
:04449600CF90089526
:10449A00CF92DF92EF92FF92CF93DF93CDB7DEB741
:1044AA00C057D109CDBFDEBF69017A01863059F103
:1044BA00873009F440C0813009F09FC020E730E01E
:1044CA00AE014F5F5F4FC701B6010E94F6418111ED
:1044DA0094C0E0919132F0919232309709F48DC0F4
:1044EA0080E7C80ED11CE11CF11CC0924F32D09259
:1044FA005032E0925132F0925232BE016F5F7F4FDA
:10450A0081E009957AC024E030E0AE014F5F5F4F49
:10451A00C701B6010E94F64181116FC0E091913244
:10452A00F0919232309709F468C0BE016F5F7F4FF5
:10453A0086E0099562C028E030E0AE014F5F5F4F28
:10454A00C701B6010E94F64181114DC02D813E81FD
:10455A008F8198856B817C8149815A81211531052A
:10456A0099F421E02093BB328617970709F020E0DF
:10457A00CA01992781309105A1F1C8F082309105CD
:10458A00E9F00397F1F02AC0820F931F21E0861702
:10459A00970709F020E0CA0199278130910509F1AE
:1045AA0030F08230910551F0039759F013C0809191
:1045BA00BB328130B1F44093BB3213C04093BB325B
:1045CA0010C08091BB32823061F0843051F0409348
:1045DA00BB3207C08091BB32823019F084E08093ED
:1045EA00BB32222351F0E0919132F091923230970E
:1045FA0021F06BEB72E387E00995C059DF4FCDBF1D
:10460A00DEBFDF91CF91FF90EF90DF90CF900895BA
:10461A00CF92DF92EF92FF920F931F93CF93DF9384
:10462A00CDB7DEB7EC97CDBFDEBF9B01FA0130975D
:10463A0009F498C040815181452B11F416821782E2
:10464A0042815381452B09F48FC044815581452B02
:10465A0009F48CC006811781A085B185AD0160E09F
:10466A0070E0400F511F611D711D453851056105EC
:10467A00710508F07DC0E284F38441E0E416F40693
:10468A0008F078C06F01A00FB11F1C96EA0EFB1E3E
:10469A008E010F5F1F4FA70164E00E94373081111E
:1046AA006AC0A70160E070E0CE01C1960E94D159AC
:1046BA0081E089ABF6018485882311F081E889AB12
:1046CA00F6018585882319F089A9806489AB1AAA1D
:1046DA00F601608171816115710581F0068117818A
:1046EA000AAB1127A801CE01CD960E9434594DE399
:1046FA0050E04C0F5D1F040F151F03C08E01035CB1
:10470A001F4FF601408551854BAB5CAB62817381CB
:10471A00C8010E9434598BA99CA9800F911F9E0140
:10472A00235C3F4FAC01421B530B4DAB5EABF60112
:10473A00428553854FAB58AF648175810E943459C5
:10474A000F2EF0E3CF2ED12CF02D8E010F5C1F4FD0
:10475A0020E330E0AE014F5F5F4F6BEB81E00E94D8
:10476A00AC1A09C081EF07C081EF05C081EF03C011
:10477A0081EF01C081EFEC96CDBFDEBFDF91CF9113
:0E478A001F910F91FF90EF90DF90CF90089558
:104798006F927F928F929F92AF92BF92CF92DF9249
:1047A800EF92FF920F931F93CF93DF93C0E00CE03B
:1047B80011E50F2EF4E2EF2EF5E4FF2EF02D0F2E6B
:1047C800FDE07F2EF02D76C00E94B1518D3021F092
:1047D8008A3009F05FC073C0E091A332F0E0EB5774
:1047E800F14D10828091A232811149C073C090911D
:1047F800A1328093A1329D3009F447C0C11145C050
:1048080060E270E085E89EE20E94F1575C01009743
:1048180019F0DC011D925D01E5E8FEE2019000203F
:10482800E9F73197E558FE426E2ECCEED0E5888048
:104838009980B40185E89EE20E943D59F4010190F7
:104848000020E9F73197E819F909811109C06E12BA
:1048580007C0EA81FB81309719F0C50109950AC0A4
:104868002496C017D10719F7FF92EF920E941453AC
:104878000F900F908091A232882331F0C1E08FE031
:1048880096E40E94D24901C0C1E01092A33210926E
:10489800A23210C0E091A332E43648F491E09E0FB2
:1048A8009093A332F0E0EB57F14D808303C081E091
:1048B8008093A2320E94BC59811186CF0EC0E0912C
:1048C800A332F0E0EB57F14D10829091A232911192
:1048D800D6CF8DCF7092A13291CF62E370E080E0A5
:1048E80090E0DF91CF911F910F91FF90EF90DF90B3
:1048F800CF90BF90AF909F908F907F906F900895CA
:104908001F93CF93DF93CDB7DEB72897CDBFDEBF18
:104918000E94C359182F882309F4A0C0AE014F5F25
:104928005F4F60E770E180E090E00E942E558111B2
:1049380084C089819A81AB81BC8180FF80C09C0141
:10494800AD012E7F29833A834B835C8360E770E156
:1049580080E090E00E94F140811173C089819A81C2
:10496800AB81BC81B695A79597958795B695A79580
:10497800979587959F7080938F3290939032892B6B
:1049880009F461C047E452E364E870E180E090E034
:104998000E942E55811159C060914732709148325A
:1049A8008091493290914A3224E030E0AE014B5F69
:1049B8005F4F0E94FC36182F811149C06F8178859E
:1049C80080918F3290919032861B970B059708F053
:1049D80040C0ED818FEF8E0F8730E8F58091473228
:1049E80090914832A0914932B0914A329C01AD0170
:1049F800285F3F4F4F4F5F4F68507109F0E0EE0F4F
:104A0800FF1FE457FD4A0190F081E02D8E81099542
:104A180081E00E94E85222E030E040E050E060E7A8
:104A280070E180E090E00E94A33F80E00E94E8529D
:104A38000E943B5B882391F010C014EF0FC014EF65
:104A48000DC014EF0BC01EEF09C014EF07C014EF20
:104A580005C01AEF03C014EF01C014EF812F289688
:0C4A6800CDBFDEBFDF91CF911F910895FC
:104A7400EF92FF920F931F93CF93DF93CDB7DEB7DF
:104A8400C25CD109CDBFDEBF8C01CF53DF4F18828A
:104A94001982C15CD04081E090E08B839C83F80153
:104AA400808191818330910501F130F48130910549
:104AB40051F0029731F15BC08430910509F445C08F
:104AC4000597A1F154C0AE01435F5F4FBE016F5A19
:104AD4007F4FC8010C960E94AF30082E000C990B32
:104AE4008B839C83E12CF12C44C0CE010D960E9453
:104AF400AF40082E000C990B8B839C83E12CF12C86
:104B040038C0AE014F5A5F4FB801645F7F4FF80160
:104B1400E25BFF4F808191810E944D4F082E000C73
:104B2400990B8B839C83E12CF12C23C0F8016485C1
:104B34007585868597850E949028082E000C990B10
:104B44008B839C83E12CF12C14C07E01F1E7EF0EE2
:104B5400F11CAE014F535F4FB701C8010C960E9480
:104B6400633A082E000C990B8B839C8302C0E12CC2
:104B7400F12CF8018081918189839A8384819581C4
:104B8400A681B7818D839E83AF83B8878085918505
:104B9400A285B38589879A87AB87BC870E94E3582F
:104BA400CF53DF4F48815981C15CD0406E2D7F2D9A
:104BB400CE0101960E94C850CE53DF4FCDBFDEBF59
:0E4BC400DF91CF911F910F91FF90EF90089518
:104BD2004F925F926F927F928F929F92AF92BF920B
:104BE200EF92FF920F931F93CF93DF9300D000D0E9
:104BF200CDB7DEB77C0148015901742E66245524D5
:104C02004424872F9927AA27BB27482A592A6A2A88
:104C12007B2A8BE0482ADB01CA018827AA27BB2707
:104C2200BA2FA92F982F8827482A592A6A2A7B2A1D
:104C3200442755277727452F562F672F7727442A52
:104C4200552A662A772AA901980168E072E081E074
:104C520090E00E94F140A30192016CE072E081E0D9
:104C620090E00E94F14025EA30E040E050E060E14F
:104C720072E081E090E00E94F1402FE130E040E0FC
:104C820050E064E172E081E090E00E94F14020E0B7
:104C920030E04DE050E06CE172E081E090E00E9493
:104CA200F14025E830E040E050E064E072E081E06D
:104CB20090E00E94F140AE014F5F5F4F68E172E009
:104CC20081E090E00E942E55811108C089819A816D
:104CD200AB81BC810197A105B10569F70E943B5BDD
:104CE200882319F00DC084EF0CC09401A70160E085
:104CF20070E08DE090E00E94FC36882311F0F3CF43
:104D020084EF2496CDBFDEBFDF91CF911F910F912B
:104D1200FF90EF90BF90AF909F908F907F906F9099
:064D22005F904F90089520
:104D2800A0E0B0E0EAE9F6E20C941B52EC01EE8157
:104D3800FF818F0104561109B9F0CF0185569109F9
:104D48006C0197FF03C023E0C20ED11CD594C79411
:104D5800D594C7946CE97FEF0E945E54C60ED71EA7
:104D68008FEFC81AD80A02C0C12CD12C2DE631E029
:104D7800D8010E94CA590D2C000CEE08FF08C60E77
:104D8800D71EE81EF91E8B81082E000C990B8C018A
:104D9800015011092D8122302CF4222379F1015E72
:104DA8001F4F2CC0CF018459984F0E947254282F4E
:104DB80030E0255C3F4F200F311F8D81082E000CFD
:104DC800990B02978530910514F027563F4F65E0FF
:104DD80070E00E945E54AC0197FF02C04F5F5F4FC6
:104DE800559547959DE3949F8001959F100D11243B
:104DF800020F131F80FF02C0015E1F4FC801110F71
:104E0800AA0BBB0B9C01AD012C0D3D1D4E1D5F1D5A
:104E180060E871E581E090E00E94E9554B015C0192
:104E2800AA810A2E000CBB0B20E13EE00E94CA5961
:104E38006B017C01A9810A2E000CBB0B2CE330E02E
:104E48000E94CA59C60ED71EE81EF91E6881862F11
:104E5800660F990BAA0BBB0B8C0D9D1DAE1DBF1DBC
:104E6800BC01CD01680D791D8A1D9B1DCDB7DEB72C
:064E7800ECE00C947C52FA
:104E7E00EF920F93CF93DF93CDB7DEB76497CDBF8D
:104E8E00DEBFDC0119821A828B839C836D830E83B5
:104E9E00E11002C082E001C080E0613248F00CC037
:104EAE00FD01E60FF11D9081911103C0562F01C037
:104EBE00562F6150A8F75D83423081F018F44130CF
:104ECE0039F070C0433061F1443009F441C06AC01A
:104EDE00BE016F5F7F4F0E94814E6BC02115310561
:104EEE0009F462C01F82188619861A861B86F9017C
:104EFE0001900020E9F73197E21BF30BE034F10546
:104F0E0019F42F83388703C029873A87EB87AE01C0
:104F1E00495F5F4FBE016F5F7F4F0E94472E49C0B2
:104F2E002115310509F442C0A9014E5F5F4F4F8331
:104F3E005887F90191819150998790819A87AE0196
:104F4E00495F5F4FBE016F5F7F4F0E94723431C069
:104F5E002115310569F11F82188629873A87D901F3
:104F6E005596AB87BC871D861E86F90101900020E1
:104F7E00E9F73197E21BF30BEF87F88BFD010190F8
:104F8E000020E9F73197EA1BFB0BE98BFA8B1B8AA2
:104F9E001C8AAE01495F5F4FBE016F5F7F4F0E945B
:104FAE000D2307C081EF05C081EF03C081EF01C063
:104FBE0081EF6496CDBFDEBFDF91CF910F91EF9061
:024FCE00089544
:104FD0000F931F93CF93DF930E942F4640E054E03E
:104FE00082EDFA01808320E234E0F901108280E44E
:104FF00094E0FC011082C0E6D4E06FE06883A0E892
:10500000B4E01C9200EA14E079E1F801708370E8E2
:10501000FA017483F9011482FC0114826C831496E2
:105020001C921497F8011482FA01108A118A128ACC
:10503000138A148A158A168A178AF901108A118A26
:10504000128A138A148A158A168A178AFC01108A12
:10505000118A128A138A148A158A168A178A188A5C
:10506000198A1A8A1B8A1C8A1D8A1E8A1F8A5096D0
:105070001C92509751961C92519752961C9252979F
:1050800053961C92539754961C92549755961C9283
:10509000559756961C92569757961C92F801108A6F
:1050A000118A8BE0828B138A148A88E0858B868B29
:1050B000178AE0EEF5E011821082148215821382C5
:1050C00012828FE59BE5809381329093823280E655
:1050D0009BE580937F329093803281E69BE58093BD
:1050E0007D3290937E3282E69BE580937B32909373
:1050F0007C3283E69BE58093793290937A3284E622
:105100009BE5809377329093783285E69BE5809398
:10511000753290937632DF91CF911F910F91089560
:105120008F929F92AF92BF92CF92DF92EF92FF92B7
:105130001F93CF93DF93CDB7DEB7C75ED109CDBF45
:10514000DEBFFE01EB56FF4F20E5DF011D922A95E1
:10515000E9F7CB51DF4F18821982C55ED040611547
:1051600071058105910509F461C04B015C01C12CF9
:10517000D12C76019E012F5F3F4FAE014B5B5F4FFD
:10518000BE016B567F4FCE018B519F4F0E9460171F
:10519000182F8823B1F0812F012E000C990B9F93BB
:1051A0001F9380EA96E49F938F931F9283E08F93DF
:1051B0000E94EA430F900F900F900F900F900F9066
:1051C00045C0CB51DF4F88819981C55ED04047975C
:1051D00009F5C951DF4F1882C75ED0409E012951A1
:1051E0003F4FAE014F5F5F4FBE016B5B7F4FCE0104
:1051F0008B569F4F0E944736811108C0C951DF4F1F
:105200008881C75ED040811105C012C00E94675BD3
:1052100014EF1CC0BFEFCB1ADB0AEB0AFB0A8C149D
:105220009D04AE04BF0409F0A5CF10C014EF0EC05A
:105230008FEC96E49F938F931F9283E08F930E944D
:10524000EA430F900F900F900F90E0CF812FC9513C
:10525000DF4FCDBFDEBFDF91CF911F91FF90EF9069
:0E526000DF90CF90BF90AF909F908F900895F9
:10526E00CF93DF938EE597E49F938F93C3E0CF9315
:10527E0084E08F930E94EA4384E797E49F938F9391
:10528E001F92CF930E94EA4310920A2810920B2885
:10529E0010920C2810920D2880910E288D7F886018
:1052AE0080930E2880910928877F8B7F8093092811
:1052BE000E9474476FE475E484E291E30E940759FB
:1052CE000E94984CCFE0D8E28AE0FE0111928A95B6
:1052DE00E9F7CE010E94805A0E941A5BFC01808978
:1052EE0091898883998384E19BE58A839B838DB71B
:1052FE009EB708968DBF9EBF80915C28882399F03B
:10530E008091AE28882379F086E897E49F938F9357
:10531E001F9283E08F930E94EA430F900F900F909D
:10532E000F9081E00EC080EB97E49F938F931F92B6
:10533E0083E08F930E94EA430F900F900F900F908F
:10534E0080E00E948845882309F189E891E30E9454
:10535E000E5484EE97E49F938F931F9283E08F9366
:10536E000E94EA4340E157E260E070E083E991E396
:10537E000E94A236809109288D7F8860816080937B
:10538E0009280F900F900F900F9005C0809109285B
:10539E008E7F8093092860E070E0CB01DF91CF9182
:0253AE00089560
:1053B000CF92DF92EF92FF920F931F93CF93DF93E1
:1053C000CDB7DEB7C75CD109CDBFDEBF41155105F2
:1053D00009F454C0E0916932F0916A32C080D18002
:1053E000982F9370923009F062C02115310531F485
:1053F00047C00115110509F05EC044C08C836D8360
:105400007E8380E4FA01DE01179601900D928A9561
:10541000E1F780E4F901DE01A95BBF4F01900D9235
:105420008A95E1F709C083E1F801DE01A95BBF4F6E
:1054300001900D928A95E1F7BE016F5F7F4FC60123
:105440000E94A44E811143C06091693270916A320A
:10545000CE0101960E94432F811139C0E114F1045D
:1054600099F08F81833290F080E2FE013896D70167
:1054700001900D928A95E1F780E029C082EE27C065
:1054800082EE25C082EE23C080E021C080E01FC0F4
:105490008C836D837E8380E4FA01DE011796019090
:1054A0000D928A95E1F70115110531F2BCCF9330C9
:1054B00009F49FCFEDCF8C836D837E8380E4FA0166
:1054C000DE01179601900D928A95E1F7ACCFC95392
:1054D000DF4FCDBFDEBFDF91CF911F910F91FF90C6
:0854E000EF90DF90CF900895DA
:1054E800CF92DF92EF92FF92CF93DF9300D000D05C
:1054F800CDB7DEB7C0904B32D0904C32E0904D32F1
:10550800F0904E32C114D104E104F10409F078C0DE
:10551800AE014F5F5F4F64EF73E180E090E00E945F
:105528002E5581116DC04BE452E360E070E180E0DC
:1055380090E00E942E55811163C080914B3290916A
:105548004C32A0914D32B0914E32803A22E092070F
:1055580020E1A207B105A9F489819A81AB81BC81B8
:105568000197A105B105C1F181EA92E0A0E1B0E09F
:1055780080934B3290934C32A0934D32B0934E327D
:105588002BC0803B9240A041B10531F589819A81B9
:10559800AB81BC8183309105A105B105E9F0049781
:1055A800A105B10569F481EB92E0A0E1B0E0809338
:1055B8004B3290934C32A0934D32B0934E320CC084
:1055C80082EB92E0A0E1B0E080934B3290934C32B2
:1055D800A0934D32B0934E32C0904B32D0904C32A3
:1055E800E0904D32F0904E3280EFE82225E0E22A3A
:1055F800C0924B32D0924C32E0924D32F0924E3201
:10560800C701B6012496CDBFDEBFDF91CF91FF90D1
:08561800EF90DF90CF900895A0
:105620008F929F92AF92BF92FF920F931F93CF934F
:10563000DF93CDB7DEB7CC56D109CDBFDEBFF82E94
:1056400049015A01809109308E3309F442C0F8169D
:1056500031F009E010E337C08F1135C002C009E016
:1056600010E3D80111962D913C9112972115310527
:1056700009F45BC0AE014F5F5F4FC501B4010E94EA
:10568000F641811159C0E0919332F09194323097F4
:1056900001F1D80111968D919C911297892B71F08F
:1056A000B1E1FB1205C01092BC3289818093BE32F9
:1056B000BE016F5F7F4F8F2D09950BC060E070E0DA
:1056C0008F2D099506C00D5F1F4FF80180818E3325
:1056D00019F6F0E2FF1230C028E030E0AE014B597D
:1056E0005F4FC501B4010E94F641811125C0AB9600
:1056F0002EAD3FADAB97A7964EAD5FADA797C50159
:10570000B401685F7F4F8F4F9F4F0E94F641811118
:1057100013C0E0919332F0919432309769F0BE015A
:105720006B597F4F80E2099507C0E0919332F09169
:105730009432309771F2C2CFC459DF4FCDBFDEBF74
:10574000DF91CF911F910F91FF90BF90AF909F90ED
:045750008F90089599
:105754007F928F929F92AF92BF92CF92DF92EF92FD
:10576400FF920F931F93CF93DF93CDB7DEB72897A4
:10577400CDBFDEBF6A018901FE01319697E0DF01EA
:105784001D929A95E9F797EC99839091B73291110C
:1057940049C091E09093B7322130310511F402E011
:1057A40010E08A837B836C831E830F8367E0CE01C2
:1057B40001960E949353B82E811137C081EF8887D8
:1057C40001151105D9F1712C6894882485F80F2EE0
:1057D400F3EF9F2EF02D0F2EF2EFAF2EF02D780168
:1057E4000130B0E21B0710F0E72CF82C0E191F094A
:1057F40009F4988661E070E0CE0108960E94BD39F4
:105804008823C9F0B701C6010E94BD39882399F0E5
:10581400A886CE0CDF1C0115110509F70FC01092E4
:10582400B73212C0BB24B3940FC0BB24B3940CC0D2
:10583400BB24B39409C0BB24B39406C083EC0E9478
:105844000A47882361F3F4CF8B2D2896CDBFDEBFA2
:10585400DF91CF911F910F91FF90EF90DF90CF9048
:0C586400BF90AF909F908F907F900895B0
:10587000CF93DF93EC01EAECF0E38DE1DF011D92C1
:105880008A95E9F790819F709061908384E0868388
:105890009DE4978391E5908794E59187928783872C
:1058A0008F89988D892B21F48B899C89892B21F0F4
:1058B00082EC8093D63003C082E08093D6304AECED
:1058C00050E38D859E85982789279827FA0185873B
:1058D0009687A989BA89A18BB28BFD01019000201E
:1058E000E9F79F01215031092A1B3B0BDA011F9672
:1058F0002D933C9350974091D63046FF09C0898D37
:105900009A8DFD01818F928F8F89988D878B908FD3
:10591000442394F48D899E89EAECF0E3858B968B81
:105920006B897C89638B748B8789908D860F971F19
:105930000496820F931F01C0C9010C968093E53035
:105940009093E630407C81F0EAECF0E38789908D1B
:10595000982789279827878B908F83899489982700
:1059600089279827838B948B3227232732272093EC
:10597000D9303093DA3081E08093AE328093A9320F
:06598000DF91CF910895B4
:10598600CF92DF92EF92FF920F931F93CF93DF9305
:10599600CDB7DEB72897CDBFDEBF88230CF45FC036
:1059A6006115710509F45DC04115510509F45BC027
:1059B600A82F082E000CBB0B9BE08902F0011124D6
:1059C600E45FF14D9085992309F44FC09BE09A9FBF
:1059D600F0019B9FF00D1124E45FF14D608371830C
:1059E600428353839285911142C09BE09A9FF001B6
:1059F6009B9FF00D1124E45FF14D91E09287918514
:105A060090FF02C06DE401C066E401151105210591
:105A1600310549F4CC24CA94DC2C7601C982DA8299
:105A2600EB82FC8204C009831A832B833C838D831B
:105A36008BE08A9FF0018B9FF00D1124E45FF14DFE
:105A4600848195818F83988728E030E0AE014F5F8F
:105A56005F4F82E00E94A853882361F00AC08AEF54
:105A660009C08AEF07C08AEF05C08AEF03C080E04D
:105A760001C082EF2896CDBFDEBFDF91CF911F9187
:0C5A86000F91FF90EF90DF90CF900895FB
